{
  "_format": "hh-sol-artifact-1",
  "contractName": "Arbitrage",
  "sourceName": "contracts/Arbitrage.sol",
  "abi": [
    {
      "inputs": [],
      "stateMutability": "nonpayable",
      "type": "constructor"
    },
    {
      "inputs": [
        {
          "internalType": "address",
          "name": "owner",
          "type": "address"
        }
      ],
      "name": "OwnableInvalidOwner",
      "type": "error"
    },
    {
      "inputs": [
        {
          "internalType": "address",
          "name": "account",
          "type": "address"
        }
      ],
      "name": "OwnableUnauthorizedAccount",
      "type": "error"
    },
    {
      "anonymous": false,
      "inputs": [
        {
          "indexed": true,
          "internalType": "address",
          "name": "fromToken",
          "type": "address"
        },
        {
          "indexed": true,
          "internalType": "address",
          "name": "toToken",
          "type": "address"
        },
        {
          "indexed": false,
          "internalType": "uint256",
          "name": "amount",
          "type": "uint256"
        },
        {
          "indexed": false,
          "internalType": "uint256",
          "name": "received",
          "type": "uint256"
        },
        {
          "indexed": false,
          "internalType": "uint256",
          "name": "profit",
          "type": "uint256"
        },
        {
          "indexed": false,
          "internalType": "uint256",
          "name": "timestamp",
          "type": "uint256"
        }
      ],
      "name": "ArbitrageExecuted",
      "type": "event"
    },
    {
      "anonymous": false,
      "inputs": [
        {
          "indexed": true,
          "internalType": "address",
          "name": "fromToken",
          "type": "address"
        },
        {
          "indexed": true,
          "internalType": "address",
          "name": "toToken",
          "type": "address"
        },
        {
          "indexed": false,
          "internalType": "uint256",
          "name": "profit",
          "type": "uint256"
        },
        {
          "indexed": false,
          "internalType": "uint256",
          "name": "timestamp",
          "type": "uint256"
        }
      ],
      "name": "OpportunityFound",
      "type": "event"
    },
    {
      "anonymous": false,
      "inputs": [
        {
          "indexed": true,
          "internalType": "address",
          "name": "previousOwner",
          "type": "address"
        },
        {
          "indexed": true,
          "internalType": "address",
          "name": "newOwner",
          "type": "address"
        }
      ],
      "name": "OwnershipTransferred",
      "type": "event"
    },
    {
      "anonymous": false,
      "inputs": [
        {
          "indexed": false,
          "internalType": "uint256",
          "name": "gasThreshold",
          "type": "uint256"
        },
        {
          "indexed": false,
          "internalType": "uint256",
          "name": "minimumProfitPercentage",
          "type": "uint256"
        },
        {
          "indexed": false,
          "internalType": "uint256",
          "name": "tradingAmount",
          "type": "uint256"
        },
        {
          "indexed": false,
          "internalType": "uint256",
          "name": "tradingInterval",
          "type": "uint256"
        },
        {
          "indexed": false,
          "internalType": "bool",
          "name": "isActive",
          "type": "bool"
        }
      ],
      "name": "SettingsUpdated",
      "type": "event"
    },
    {
      "inputs": [],
      "name": "MAX_OPPORTUNITIES",
      "outputs": [
        {
          "internalType": "uint256",
          "name": "",
          "type": "uint256"
        }
      ],
      "stateMutability": "view",
      "type": "function"
    },
    {
      "inputs": [
        {
          "internalType": "address",
          "name": "exchange",
          "type": "address"
        }
      ],
      "name": "addExchange",
      "outputs": [],
      "stateMutability": "nonpayable",
      "type": "function"
    },
    {
      "inputs": [
        {
          "internalType": "address",
          "name": "fromToken",
          "type": "address"
        },
        {
          "internalType": "address",
          "name": "toToken",
          "type": "address"
        },
        {
          "internalType": "uint256",
          "name": "amount",
          "type": "uint256"
        },
        {
          "internalType": "uint256",
          "name": "minReturn",
          "type": "uint256"
        }
      ],
      "name": "executeArbitrage",
      "outputs": [
        {
          "internalType": "uint256",
          "name": "",
          "type": "uint256"
        }
      ],
      "stateMutability": "nonpayable",
      "type": "function"
    },
    {
      "inputs": [],
      "name": "gasThreshold",
      "outputs": [
        {
          "internalType": "uint256",
          "name": "",
          "type": "uint256"
        }
      ],
      "stateMutability": "view",
      "type": "function"
    },
    {
      "inputs": [],
      "name": "getExchanges",
      "outputs": [
        {
          "internalType": "address[]",
          "name": "",
          "type": "address[]"
        }
      ],
      "stateMutability": "view",
      "type": "function"
    },
    {
      "inputs": [],
      "name": "getProfitOpportunities",
      "outputs": [
        {
          "components": [
            {
              "internalType": "address",
              "name": "fromToken",
              "type": "address"
            },
            {
              "internalType": "address",
              "name": "toToken",
              "type": "address"
            },
            {
              "internalType": "uint256",
              "name": "profit",
              "type": "uint256"
            },
            {
              "internalType": "uint256",
              "name": "timestamp",
              "type": "uint256"
            }
          ],
          "internalType": "struct Arbitrage.Opportunity[]",
          "name": "",
          "type": "tuple[]"
        }
      ],
      "stateMutability": "view",
      "type": "function"
    },
    {
      "inputs": [],
      "name": "isActive",
      "outputs": [
        {
          "internalType": "bool",
          "name": "",
          "type": "bool"
        }
      ],
      "stateMutability": "view",
      "type": "function"
    },
    {
      "inputs": [],
      "name": "minimumProfitPercentage",
      "outputs": [
        {
          "internalType": "uint256",
          "name": "",
          "type": "uint256"
        }
      ],
      "stateMutability": "view",
      "type": "function"
    },
    {
      "inputs": [
        {
          "internalType": "uint256",
          "name": "",
          "type": "uint256"
        }
      ],
      "name": "opportunities",
      "outputs": [
        {
          "internalType": "address",
          "name": "fromToken",
          "type": "address"
        },
        {
          "internalType": "address",
          "name": "toToken",
          "type": "address"
        },
        {
          "internalType": "uint256",
          "name": "profit",
          "type": "uint256"
        },
        {
          "internalType": "uint256",
          "name": "timestamp",
          "type": "uint256"
        }
      ],
      "stateMutability": "view",
      "type": "function"
    },
    {
      "inputs": [],
      "name": "owner",
      "outputs": [
        {
          "internalType": "address",
          "name": "",
          "type": "address"
        }
      ],
      "stateMutability": "view",
      "type": "function"
    },
    {
      "inputs": [
        {
          "internalType": "uint256",
          "name": "index",
          "type": "uint256"
        }
      ],
      "name": "removeExchange",
      "outputs": [],
      "stateMutability": "nonpayable",
      "type": "function"
    },
    {
      "inputs": [],
      "name": "renounceOwnership",
      "outputs": [],
      "stateMutability": "nonpayable",
      "type": "function"
    },
    {
      "inputs": [],
      "name": "rescueETH",
      "outputs": [],
      "stateMutability": "nonpayable",
      "type": "function"
    },
    {
      "inputs": [
        {
          "internalType": "address",
          "name": "token",
          "type": "address"
        }
      ],
      "name": "rescueTokens",
      "outputs": [],
      "stateMutability": "nonpayable",
      "type": "function"
    },
    {
      "inputs": [
        {
          "internalType": "bool",
          "name": "_isActive",
          "type": "bool"
        }
      ],
      "name": "setActive",
      "outputs": [],
      "stateMutability": "nonpayable",
      "type": "function"
    },
    {
      "inputs": [
        {
          "internalType": "uint256",
          "name": "",
          "type": "uint256"
        }
      ],
      "name": "supportedExchanges",
      "outputs": [
        {
          "internalType": "address",
          "name": "",
          "type": "address"
        }
      ],
      "stateMutability": "view",
      "type": "function"
    },
    {
      "inputs": [],
      "name": "tradingAmount",
      "outputs": [
        {
          "internalType": "uint256",
          "name": "",
          "type": "uint256"
        }
      ],
      "stateMutability": "view",
      "type": "function"
    },
    {
      "inputs": [],
      "name": "tradingInterval",
      "outputs": [
        {
          "internalType": "uint256",
          "name": "",
          "type": "uint256"
        }
      ],
      "stateMutability": "view",
      "type": "function"
    },
    {
      "inputs": [
        {
          "internalType": "address",
          "name": "newOwner",
          "type": "address"
        }
      ],
      "name": "transferOwnership",
      "outputs": [],
      "stateMutability": "nonpayable",
      "type": "function"
    },
    {
      "inputs": [
        {
          "internalType": "uint256",
          "name": "_gasThreshold",
          "type": "uint256"
        },
        {
          "internalType": "uint256",
          "name": "_minimumProfitPercentage",
          "type": "uint256"
        },
        {
          "internalType": "uint256",
          "name": "_tradingAmount",
          "type": "uint256"
        },
        {
          "internalType": "uint256",
          "name": "_tradingInterval",
          "type": "uint256"
        },
        {
          "internalType": "bool",
          "name": "_isActive",
          "type": "bool"
        }
      ],
      "name": "updateSettings",
      "outputs": [],
      "stateMutability": "nonpayable",
      "type": "function"
    },
    {
      "stateMutability": "payable",
      "type": "receive"
    }
  ],
  "bytecode": "0x6080604052600f60025560056003819055683635c9adc5dea00000600455603c90556006805460ff1916600117905534801561003a57600080fd5b50338061006157604051631e4fbdf760e01b81526000600482015260240160405180910390fd5b61006a81610116565b50600780546001818101835560008390527fa66cc928b5edb82af9bd49922954155ab7b0942694bea4ce44661d9a8736c68891820180546001600160a01b031990811673111111111111111111111111111111111111111117909155835480830185558301805482167322222222222222222222222222222222222222221790558354918201909355018054909116733333333333333333333333333333333333333333179055610166565b600080546001600160a01b038381166001600160a01b0319831681178455604051919092169283917f8be0079c531659141344cd1fd0a4f28419497f9722a3daafe3b4186f6b6457e09190a35050565b6110bf806101756000396000f3fe6080604052600436106101225760003560e01c80635a713e66116100a0578063acec338a11610064578063acec338a1461033d578063cb488a691461035d578063dd4aa9db1461037d578063df71609314610393578063f2fde38b146103a957600080fd5b80635a713e6614610289578063715018a61461029f5780638da5cb5b146102b4578063aa10ce22146102d2578063acd6c98f146102f257600080fd5b8063229d43c9116100e7578063229d43c9146101f257806322f3e2d41461020757806338759da41461023157806347e083de14610247578063543146cc1461026957600080fd5b8062ae3bf81461012e578063033802841461015057806318820afa1461018d5780631e2e3a6b146101bb57806320800a00146101dd57600080fd5b3661012957005b600080fd5b34801561013a57600080fd5b5061014e610149366004610de1565b6103c9565b005b34801561015c57600080fd5b5061017061016b366004610e03565b610523565b6040516001600160a01b0390911681526020015b60405180910390f35b34801561019957600080fd5b506101ad6101a8366004610e1c565b61054d565b604051908152602001610184565b3480156101c757600080fd5b506101d06106e3565b6040516101849190610e5e565b3480156101e957600080fd5b5061014e610745565b3480156101fe57600080fd5b506101ad600a81565b34801561021357600080fd5b506006546102219060ff1681565b6040519015158152602001610184565b34801561023d57600080fd5b506101ad60025481565b34801561025357600080fd5b5061025c6107cb565b6040516101849190610eab565b34801561027557600080fd5b5061014e610284366004610f29565b61085a565b34801561029557600080fd5b506101ad60035481565b3480156102ab57600080fd5b5061014e6108e2565b3480156102c057600080fd5b506000546001600160a01b0316610170565b3480156102de57600080fd5b5061014e6102ed366004610de1565b6108f6565b3480156102fe57600080fd5b5061031261030d366004610e03565b610950565b604080516001600160a01b039586168152949093166020850152918301526060820152608001610184565b34801561034957600080fd5b5061014e610358366004610f76565b610996565b34801561036957600080fd5b5061014e610378366004610e03565b6109b1565b34801561038957600080fd5b506101ad60045481565b34801561039f57600080fd5b506101ad60055481565b3480156103b557600080fd5b5061014e6103c4366004610de1565b610aaa565b6103d1610ae8565b6040516370a0823160e01b815230600482015281906000906001600160a01b038316906370a0823190602401602060405180830381865afa15801561041a573d6000803e3d6000fd5b505050506040513d601f19601f8201168201806040525081019061043e9190610f93565b90506000811161048b5760405162461bcd60e51b81526020600482015260136024820152724e6f20746f6b656e7320746f2072657363756560681b60448201526064015b60405180910390fd5b816001600160a01b031663a9059cbb6104ac6000546001600160a01b031690565b6040516001600160e01b031960e084901b1681526001600160a01b039091166004820152602481018490526044016020604051808303816000875af11580156104f9573d6000803e3d6000fd5b505050506040513d601f19601f8201168201806040525081019061051d9190610fac565b50505050565b6007818154811061053357600080fd5b6000918252602090912001546001600160a01b0316905081565b6000610557610ae8565b60065460ff166105a95760405162461bcd60e51b815260206004820152601b60248201527f4172626974726167652074726164696e672069732070617573656400000000006044820152606401610482565b600083116105f95760405162461bcd60e51b815260206004820152601d60248201527f416d6f756e74206d7573742062652067726561746572207468616e20300000006044820152606401610482565b60006103e8610609856005610fdf565b6106139190610ffc565b61061d908561101e565b9050828110156106675760405162461bcd60e51b815260206004820152601560248201527452657475726e20616d6f756e7420746f6f206c6f7760581b6044820152606401610482565b61067b86866106768785611031565b610b15565b6001600160a01b038086169087167f766728be372c898c13c663da63b59fdfeb89dab2a81d4afe3177eb038ee0dcd286846106b68282611031565b6040805193845260208401929092529082015242606082015260800160405180910390a395945050505050565b6060600780548060200260200160405190810160405280929190818152602001828054801561073b57602002820191906000526020600020905b81546001600160a01b0316815260019091019060200180831161071d575b5050505050905090565b61074d610ae8565b478061078e5760405162461bcd60e51b815260206004820152601060248201526f4e6f2045544820746f2072657363756560801b6044820152606401610482565b600080546040516001600160a01b039091169183156108fc02918491818181858888f193505050501580156107c7573d6000803e3d6000fd5b5050565b60606001805480602002602001604051908101604052809291908181526020016000905b82821015610851576000848152602090819020604080516080810182526004860290920180546001600160a01b0390811684526001808301549091168486015260028201549284019290925260030154606083015290835290920191016107ef565b50505050905090565b610862610ae8565b60028590556003849055600483905560058290556006805460ff191682151590811790915560408051878152602081018790529081018590526060810184905260ff909116151560808201527f3907e32b17f7580a28daa3b1960a7eed0f83bfcd19f7fc56c97f844ba8acbe089060a00160405180910390a15050505050565b6108ea610ae8565b6108f46000610d75565b565b6108fe610ae8565b600780546001810182556000919091527fa66cc928b5edb82af9bd49922954155ab7b0942694bea4ce44661d9a8736c6880180546001600160a01b0319166001600160a01b0392909216919091179055565b6001818154811061096057600080fd5b600091825260209091206004909102018054600182015460028301546003909301546001600160a01b0392831694509116919084565b61099e610ae8565b6006805460ff1916911515919091179055565b6109b9610ae8565b60075481106109fa5760405162461bcd60e51b815260206004820152600d60248201526c092dcecc2d8d2c840d2dcc8caf609b1b6044820152606401610482565b60078054610a0a90600190611031565b81548110610a1a57610a1a611044565b600091825260209091200154600780546001600160a01b039092169183908110610a4657610a46611044565b9060005260206000200160006101000a8154816001600160a01b0302191690836001600160a01b031602179055506007805480610a8557610a8561105a565b600082815260209020810160001990810180546001600160a01b031916905501905550565b610ab2610ae8565b6001600160a01b038116610adc57604051631e4fbdf760e01b815260006004820152602401610482565b610ae581610d75565b50565b6000546001600160a01b031633146108f45760405163118cdaa760e01b8152336004820152602401610482565b600154600a11610c2c5760005b60018054610b309190611031565b811015610bdc576001610b43828261101e565b81548110610b5357610b53611044565b906000526020600020906004020160018281548110610b7457610b74611044565b60009182526020909120825460049092020180546001600160a01b039283166001600160a01b03199182161782556001808501549083018054919094169116179091556002808301549082015560039182015491015580610bd481611070565b915050610b22565b506001805480610bee57610bee61105a565b60008281526020812060046000199093019283020180546001600160a01b031990811682556001820180549091169055600281018290556003015590555b604080516080810182526001600160a01b03808616808352858216602084018181528486018781524260608701818152600180548082018255600091909152975160049098027fb10e2d527612073b26eecdfd717e6a320cf44b4afac2b0732d9fcbe2b7fa0cf6810180549989166001600160a01b03199a8b1617905593517fb10e2d527612073b26eecdfd717e6a320cf44b4afac2b0732d9fcbe2b7fa0cf78501805491909816981697909717909555517fb10e2d527612073b26eecdfd717e6a320cf44b4afac2b0732d9fcbe2b7fa0cf882015593517fb10e2d527612073b26eecdfd717e6a320cf44b4afac2b0732d9fcbe2b7fa0cf99094019390935592519192917fecd281bd27823a1b34889faf2ae975db1ab6ecbbadac237743474f519dc0d40991610d6891869190918252602082015260400190565b60405180910390a3505050565b600080546001600160a01b038381166001600160a01b0319831681178455604051919092169283917f8be0079c531659141344cd1fd0a4f28419497f9722a3daafe3b4186f6b6457e09190a35050565b80356001600160a01b0381168114610ddc57600080fd5b919050565b600060208284031215610df357600080fd5b610dfc82610dc5565b9392505050565b600060208284031215610e1557600080fd5b5035919050565b60008060008060808587031215610e3257600080fd5b610e3b85610dc5565b9350610e4960208601610dc5565b93969395505050506040820135916060013590565b6020808252825182820181905260009190848201906040850190845b81811015610e9f5783516001600160a01b031683529284019291840191600101610e7a565b50909695505050505050565b602080825282518282018190526000919060409081850190868401855b82811015610f0e57815180516001600160a01b03908116865287820151168786015285810151868601526060908101519085015260809093019290850190600101610ec8565b5091979650505050505050565b8015158114610ae557600080fd5b600080600080600060a08688031215610f4157600080fd5b853594506020860135935060408601359250606086013591506080860135610f6881610f1b565b809150509295509295909350565b600060208284031215610f8857600080fd5b8135610dfc81610f1b565b600060208284031215610fa557600080fd5b5051919050565b600060208284031215610fbe57600080fd5b8151610dfc81610f1b565b634e487b7160e01b600052601160045260246000fd5b8082028115828204841417610ff657610ff6610fc9565b92915050565b60008261101957634e487b7160e01b600052601260045260246000fd5b500490565b80820180821115610ff657610ff6610fc9565b81810381811115610ff657610ff6610fc9565b634e487b7160e01b600052603260045260246000fd5b634e487b7160e01b600052603160045260246000fd5b60006001820161108257611082610fc9565b506001019056fea2646970667358221220df30b615b982d2c3797e75dfcd7cf07b5cd71cef54ac7da9dbba49bc6f67c85864736f6c63430008140033",
  "linkReferences": {},
  "deployedLinkReferences": {}
}